S012000053454E534F525F4543552E73726563FC
S11300000C942A000C9447000C9447000C9447006D
S11300100C9447000C9447000C9447000C94470040
S11300200C9447000C9447000C9447000C945D0119
S11300300C9447000C9436010C9447000C94470030
S11300400C9447000C9447000C9447000C94470010
S11300500C94470011241FBECFE5D4E0DEBFCDBF12
S113006010E0A0E6B0E0ECE0F3E002C005900D92F1
S1130070A236B107D9F720E0A2E6B0E001C01D9294
S1130080AE38B207E1F70E94D9000C9484010C94B5
S11300900000CF93DF93C0916500D0E00E942A0155
S11300A0CC58DF4F888380916500E82FF0E0EC584E
S11300B0FF4F9081933241F4E0916200F09163002C
S11300C009951092650003C08F5F80936500DF91EE
S11300D0CF91089580916000811115C0E091640072
S11300E0F0E0E659FF4F8081833231F40E94280109
S11300F081E08093600008950E942801809164004B
S11301008F5F8093640008950E940C011092650033
S11301101092640081E0809360008AE690E00E947F
S11301202C0189E490E00E943101089580916000DF
S11301300895CF93DF93EC0110926000988193327D
S113014071F0E0E0AE2FB0E0A659BF4F9C93EF5F93
S1130150DE01AE0FB11D9C919332A1F701C0E0E026
S1130160F0E0E659FF4F83E2808380916A000E94A9
S1130170280181E080936400DF91CF910895E1E844
S1130180F0E084E6808380917F00818380918D00FC
S1130190828380918000838380918B00848380910B
S11301A08C00858380917E00868383E2878310861A
S11301B0089578940E94840081E080937F0083E016
S11301C08093800087E080937E002FE986E891E0A9
S11301D0215080409040E1F700C0000080917F00F2
S11301E08F5F80937F00809180008F5F8093800079
S11301F080917E008F5F80937E0009C08BB38F5FF8
S11302008BBB0E94BF0081E890E00E9499000E948D
S113021096008111F3CFD9CF599A549A539A579A89
S1130220569A529880B5806880BD80B5826080BD42
S113023080B5846080BD80B58F7E80BD80B58F7DA4
S113024080BD80B5877F80BD10BC8CE089B90895DE
S11302508CB908958CB108959093690080936800D7
S11302600895909367008093660008951F920F92FB
S11302700FB60F9211242F933F934F935F936F9375
S11302807F938F939F93AF93BF93EF93FF93E091EB
S11302906800F09169000995FF91EF91BF91AF91CA
S11302A09F918F917F916F915F914F913F912F918A
S11302B00F900FBE0F901F9018951F920F920FB6BC
S11302C00F9211242F933F934F935F936F937F93D8
S11302D08F939F93AF93BF93EF93FF93E091660047
S11302E0F09167000995FF91EF91BF91AF919F91B4
S11302F08F917F916F915F914F913F912F910F90CB
S10F03000FBE0F901F901895F894FFCFCB
S105030C0100EA
S9030000FC
