S012000053454E534F525F4543552E73726563FC
S11300000C942A000C9447000C9447000C9447006D
S11300100C9447000C9447000C9447000C94470040
S11300200C9447000C94CD010C9447000C946C0282
S11300300C9447000C9445020C946F000C944700F8
S11300400C9447000C9447000C9447000C94F40162
S11300500C94470011241FBECFE5D4E0DEBFCDBF12
S113006010E0A0E6B0E0E6EAF7E002C005900D92E9
S1130070A236B107D9F720E0A2E6B0E001C01D9294
S1130080A839B207E1F70E947D010C94D1030C94C6
S11300900000369A089597B1907E97B997B187700A
S11300A0982B97B908953F983E9A3D9880E00E9416
S11300B04B00379A3598339A3298319A309A80B7F0
S11300C08F7780BF80B78F7B80BF80B78F7D80BFE5
S11300D0349A0895909363008093620008951F9268
S11300E00F920FB60F9211242F933F934F935F9368
S11300F06F937F938F939F93AF93BF93EF93FF93EC
S1130100E0916200F09163000995FF91EF91BF9136
S1130110AF919F918F917F916F915F914F913F919B
S11301202F910F900FBE0F901F901895CF93DF93D0
S1130130C0916700D0E00E943902C558DF4F888320
S113014080916700E82FF0E0E558FF4F90819332EB
S113015041F4E0916400F091650009951092670004
S113016003C08F5F80936700DF91CF9108958091E2
S11301706000811115C0E0916600F0E0EF58FF4F78
S11301808081833231F40E94370281E080936000E1
S113019008950E943702809166008F5F8093660005
S11301A008950E941B02109267001092660081E07D
S11301B08093600087EB90E00E943B0286E990E028
S11301C00E9440020895809160000895CF93DF93C8
S11301D0EC01109260009881933271F0E0E0AE2F50
S11301E0B0E0AF58BF4F9C93EF5FDE01AE0FB11D7F
S11301F09C919332A1F701C0E0E0F0E0EF58FF4F8B
S113020083E28083809171000E94370281E08093B1
S11302106600DF91CF91089524B135B180916800D3
S1130220811119C081E080936800AEEEB2E00E94B3
S1130230C2030E94340320E030ED4FEB54E40E94EB
S113024093020E9405036093870081E00E944B00A3
S11302500E9449000895813059F4109268002130B9
S1130260314020F081E0809396000895109296002A
S11302700895EAE8F0E084E6808380918700818332
S1130280809196008283809188008383809194007A
S1130290848380919500858380918600868383E2A0
S11302A087831086089580918800811102C0C798C1
S11302B00895C79A0895209186008FEF289F900192
S11302C011243695279536952795ABE7B4E10E941E
S11302D0C203969587950E94CB01089578940E9455
S11302E0D1008CE091E00E946A000E94530087B321
S11302F0886887BB0E94B50108950E946E01C1E021
S1130300D4E606C00E9439018AE890E00E94E60023
S11303100E94E3008111F6CF0E944B000E94490025
S11303208091970081110BC080918700880F809382
S1130330860080918600853610F0D09386000E9456
S11303405B0180918900811107C0909196008C2FE8
S1130350911180E0809388000E94530183EC99E01E
S11303600197F1F700C00000D3CF83B7806483BF47
S113037083B7886083BF83B78F7E83BF83B7806270
S113038083BF83B7816083BF83B78D7F83BF83B708
S11303908B7F83BF08958CBF08951F920F920FB671
S11303A00F9211242F933F934F935F936F937F93F7
S11303B08F939F93AF93BF93EF93FF93E0916B0061
S11303C0F0916C000995FF91EF91BF91AF919F91CE
S11303D08F917F916F915F914F913F912F910F90EA
S11303E00FBE0F901F9018951F920F920FB60F9289
S11303F011242F933F934F935F936F937F938F9326
S11304009F93AF93BF93EF93FF93E0916900F091B3
S11304106A000995FF91EF91BF91AF919F918F91E0
S11304207F916F915F914F913F912F910F900FBEEC
S11304300F901F901895599A549A539A579A569A0E
S1130440529880B5806880BD80B5826080BD80B5DB
S1130450846080BD80B58F7E80BD80B58F7D80BD7A
S113046080B5877F80BD10BC8CE089B908958CB9B4
S113047008958CB108959093700080936F0008954F
S113048090936E0080936D0008951F920F920FB6A3
S11304900F9211242F933F934F935F936F937F9306
S11304A08F939F93AF93BF93EF93FF93E0916F006C
S11304B0F09170000995FF91EF91BF91AF919F91D9
S11304C08F917F916F915F914F913F912F910F90F9
S11304D00FBE0F901F9018951F920F920FB60F9298
S11304E011242F933F934F935F936F937F938F9335
S11304F09F93AF93BF93EF93FF93E0916D00F091BF
S11305006E000995FF91EF91BF91AF919F918F91EB
S11305107F916F915F914F913F912F910F900FBEFB
S11305200F901F9018950E94A7020C9488030E94B4
S1130530810358F00E947A0340F029F45F3F29F0C8
S11305400C94710351110C94BC030C9477030E9416
S1130550990368F39923B1F3552391F3951B550B34
S1130560BB27AA2762177307840738F09F5F5F4F82
S1130570220F331F441FAA1FA9F335D00E2E3AF0C1
S1130580E0E832D091505040E695001CCAF72BD0D9
S1130590FE2F29D0660F771F881FBB1F261737072A
S11305A04807AB07B0E809F0BB0B802DBF01FF275C
S11305B093585F4F3AF09E3F510578F00C947103C5
S11305C00C94BC035F3FE4F3983ED4F3869577958F
S11305D06795B795F7959F5FC9F7880F911D969515
S11305E0879597F90895E1E0660F771F881FBB1F71
S11305F0621773078407BA0720F0621B730B840B1E
S1130600BA0BEE1F88F7E09508950E94A10388F0C5
S11306109F5798F0B92F9927B751B0F0E1F0660FC2
S1130620771F881F991F1AF0BA95C9F714C0B13003
S113063091F00E94BB03B1E008950C94BB03672FB3
S1130640782F8827B85F39F0B93FCCF38695779532
S11306506795B395D9F73EF490958095709561951B
S11306607F4F8F4F9F4F0895E89409C097FB3EF446
S113067090958095709561957F4F8F4F9F4F9923EB
S1130680A9F0F92F96E9BB279395F6958795779569
S11306906795B795F111F8CFFAF4BB0F11F460FF29
S11306A01BC06F5F7F4F8F4F9F4F16C0882311F081
S11306B096E911C0772321F09EE8872F762F05C095
S11306C0662371F096E8862F70E060E02AF09A9530
S11306D0660F771F881FDAF7880F9695879597F925
S11306E0089597F99F6780E870E060E008959FEFB0
S11306F080EC089500240A941616170618060906B5
S1130700089500240A941216130614060506089583
S1130710092E0394000C11F4882352F0BB0F40F40B
S1130720BF2B11F460FF04C06F5F7F4F8F4F9F4F4B
S1130730089557FD9058440F551F59F05F3F71F0CD
S11307404795880F97FB991F61F09F3F79F0879534
S11307500895121613061406551FF2CF4695F1DFBD
S113076008C0161617061806991FF1CF869571054D
S1130770610508940895E894BB2766277727CB0181
S113078097F90895A29FB001B39FC001A39F700D74
S1130790811D1124911DB29F700D811D1124911D85
S10907A00895F894FFCF58
S10507A601004C
S9030000FC
