:100000000C942A000C9447000C9447000C94470071
:100010000C9447000C9447000C9447000C94470044
:100020000C9447000C9447000C9447000C94580122
:100030000C9447000C9431010C9447000C94470039
:100040000C9447000C9447000C9447000C94470014
:100050000C94470011241FBECFE5D4E0DEBFCDBF16
:1000600010E0A0E6B0E0E2E0F3E002C005900D92FF
:10007000A236B107D9F720E0A2E6B0E001C01D9298
:10008000AC38B207E1F70E94D4000C947F010C94C5
:100090000000CF93DF93C0916300D0E00E94250160
:1000A000CE58DF4F888380916300E82FF0E0EE5850
:1000B000FF4F9081933219F41092630003C08F5F59
:1000C00080936300DF91CF9108958091600081114A
:1000D00015C0E0916200F0E0E859FF4F8081833263
:1000E00031F40E94230181E08093600008950E9412
:1000F0002301809162008F5F8093620008950E94C7
:100100000701109263001092620081E0809360000A
:1001100085E690E00E94270189E490E00E942C018E
:100120000895809160000895CF93DF93EC011092C1
:1001300060009881933271F0E0E0AE2FB0E0A859F2
:10014000BF4F9C93EF5FDE01AE0FB11D9C919332C8
:10015000A1F701C0E0E0F0E0E859FF4F83E28083BF
:10016000809168000E94230181E080936200DF910A
:10017000CF910895EFE7F0E084E6808380917D00E1
:10018000818380918B00828380917E008383809124
:100190008900848380918A00858380917C00868396
:1001A00083E287831086089578940E947F0081E01F
:1001B00080937D0083E080937E0087E080937C00C5
:1001C0002FE986E891E0215080409040E1F700C09F
:1001D000000080917D008F5F80937D0080917E0084
:1001E0008F5F80937E0080917C008F5F80937C0086
:1001F00009C08BB38F5F8BBB0E94BA008FE790E082
:100200000E9494000E9491008111F3CFD9CF599A96
:10021000549A539A579A569A529880B5806880BDDE
:1002200080B5826080BD80B5846080BD80B58F7EE2
:1002300080BD80B58F7D80BD80B5877F80BD10BCBF
:100240008CE089B908958CB908958CB10895909384
:100250006700809366000895909365008093640022
:1002600008951F920F920FB60F9211242F933F9370
:100270004F935F936F937F938F939F93AF93BF93AE
:10028000EF93FF93E0916600F09167000995FF916D
:10029000EF91BF91AF919F918F917F916F915F91FE
:1002A0004F913F912F910F900FBE0F901F90189577
:1002B0001F920F920FB60F9211242F933F934F93DB
:1002C0005F936F937F938F939F93AF93BF93EF93BE
:1002D000FF93E0916400F09165000995FF91EF9123
:1002E000BF91AF919F918F917F916F915F914F914E
:1002F0003F912F910F900FBE0F901F901895F8947B
:02030000FFCF2D
:020302000100F8
:00000001FF
