:100000000C943A000C9457000C9457000C94570031
:100010000C9457000C9457000C9457000C94570004
:100020000C9457000C9457000C9457000C945700F4
:100030000C9457000C9457000C9457000C945700E4
:100040000C9457000C9457000C9457000C945700D4
:100050000C9457006C014C014E01500152015401A7
:10006000560158015A015C015E01600162016401A0
:100070006601680111241FBECFE5D4E0DEBFCDBF0D
:1000800010E0A0E6B0E0E0E5F6E002C005900D92D9
:10009000A63FB107D9F721E0A6EFB0E001C01D925D
:1000A000A330B207E1F70E942F010C9426030C94B1
:1000B00000008FEF8ABB87BB84BB81BB089588306B
:1000C000E8F4613069F44BB321E030E0B90102C0DB
:1000D000660F771F8A95E2F7CB01842B8BBB0895BF
:1000E0004BB321E030E0B90102C0660F771F8A955B
:1000F000E2F7CB01809584238BBB08958031F8F41F
:10010000613071F448B3885021E030E0B90102C099
:10011000660F771F8A95E2F7CB01842B88BB089581
:1001200048B3885021E030E0B90102C0660F771F64
:100130008A95E2F7CB018095842388BB08958831A6
:10014000F8F4613071F445B3805121E030E0B90139
:1001500002C0660F771F8A95E2F7CB01842B85BB1F
:10016000089545B3805121E030E0B90102C0660F27
:10017000771F8A95E2F7CB018095842385BB08958C
:100180008032F0F4613071F442B3885121E030E004
:10019000B90102C0660F771F8A95E2F7CB01842B65
:1001A00082BB089542B3885121E030E0B90102C01A
:1001B000660F771F8A95E2F7CB018095842382BB77
:1001C0000895811102C06BBB0895813011F468BBA2
:1001D0000895823011F465BB0895833009F462BB41
:1001E0000895811102C06ABB0895813011F467BB84
:1001F0000895823011F464BB0895833009F461BB23
:100200000895811109C089B390E002C09595879542
:100210006A95E2F781700895813049F486B390E0E1
:1002200002C0959587956A95E2F7817008958230AE
:1002300049F483B390E002C0959587956A95E2F7FB
:1002400081700895833049F480B390E002C09595A1
:1002500087956A95E2F78170089580E008950E947D
:1002600059000E94E3010E945C020E946E018F3FD0
:1002700011F00E947D028FE493EC0197F1F700C02A
:100280000000F3CF90E0FC013197E031F10510F56B
:10029000E65DFF4F0C94200388E3089589E30895F9
:1002A00085E2089584E3089585E3089586E308953B
:1002B0008AE2089581E3089582E3089583E308952F
:1002C0008DE208958DE0089580E308958DE308950B
:1002D0008BE208958FEF089587E30895CF92DF9220
:1002E000EF92FF920F931F93CF93DF9300E010E004
:1002F0006894CC24C4F8D12CE02EE601002E02C074
:10030000CC0FDD1F0A94E2F7BE0182E090E00E946C
:10031000F1006C2F609582E00E94E100C0E0D0E027
:10032000FC2EBE0182E090E00E940101892B41F485
:10033000FF0CFF0C81E08E0D8F0D0E9442010AC060
:100340002196C430D10561F70F5F1F4F04301105AE
:1003500099F68FEFDF91CF911F910F91FF90EF9062
:10036000DF90CF900895CF93C82F60E08AE00E947D
:100370005F0060E089E00E945F0089EF90E00197F4
:10038000F1F700C0000061E088E00E945F0089EFA3
:1003900090E00197F1F700C000006C2F80E00E9410
:1003A000E10089EF90E00197F1F700C0000060E004
:1003B00088E00E945F0089EF90E00197F1F700C0AC
:1003C0000000CF9108950E94590082E00E94B3017D
:1003D00088E30E94B3018CE00E94B30181E00E9497
:1003E000B3010895CF93C82F61E08AE00E945F00B7
:1003F00060E089E00E945F0089EF90E00197F1F7EB
:1004000000C0000061E088E00E945F0089EF90E09A
:100410000197F1F700C000006C2F80E00E94E1001E
:1004200089EF90E00197F1F700C0000060E088E0FC
:100430000E945F0089EF90E00197F1F700C0000093
:10044000CF9108950F931F93CF93FC018081882350
:1004500059F08F01C0E00E94F201CF5FF801EC0F6C
:10046000F11D80818111F7CFCF911F910F910895D8
:1004700081E00E94B3010895882319F0813019F0BA
:1004800004C0962F02C090E4960F892F80680E94C6
:10049000B30108950E94380280E690E00E94220293
:1004A0008091F6008F5C0E94F20160E081E00E9482
:1004B0003C021092F7000895109202010E94380247
:1004C00080E790E00E94220268E080E00E943C0207
:1004D00087E790E00E94220260E081E00E943C02F7
:1004E0008EE790E00E94220268E081E00E943C02D8
:1004F00085E890E00E94220208958D3019F40E9450
:100500005C0208959091020191112CC09FEC980F0C
:100510009330F8F491E090930201823361F08333D9
:1005200089F0813309F08BC00E9438028EE890E098
:100530000E94220208950E9438028BE990E00E94F6
:10054000220208950E94380288EA90E00E94220266
:100550000895843309F073C084E0809302010E94FF
:100560004A020895943009F06AC08D3369F0909181
:10057000F700E92FF0E0E850FF4F80839F5F9093F2
:10058000F7000E94F2010895E091F700F0E0E850D2
:10059000FF4F10828091F800813349F420E015C0AC
:1005A000FC01E850FF4F4081431779F002C080E022
:1005B00090E02091F6002F5F2093F600FC01E850B8
:1005C000FF4F8081882381F00AC02F5F822F90E047
:1005D000FC01E551FF4F30813111E2CF29C08091FC
:1005E000F6008F5F8093F6008091F600833038F03C
:1005F0000E94380285EB90E00E94220208950E943A
:10060000380289EC90E00E9422022FE38DE093E013
:10061000215080409040E1F700C000000E944A0253
:1006200008950E9438028AED90E00E942202089507
:10063000FC01E850FF4F80818111D1CFF2CF0895A6
:10064000EE0FFF1F0590F491E02D0994F894FFCF71
:10065000456E7465722050617373207472793A002C
:10066000313A54656D7000323A50756D7000333A0E
:1006700054616E6B00343A636F6E6669670073682D
:100680006F77696E672074656D700073686F776946
:100690006E672070756D700073686F77696E672084
:1006A00074616E6B0077726F6E6720706173732078
:1006B000616C61726D206F6E006769766520616E96
:1006C0006F7468657220747279004C6F67696E2070
:1006D0007375636365737366756C00313233340010
:0606E00000000000000014
:00000001FF
