:100000000C943A000C9457000C9457000C94570031
:100010000C9457000C9457000C9457000C94570004
:100020000C9457000C9457000C9457000C94AE0499
:100030000C9457000C9487040C9457000C945700B0
:100040000C9457000C9457000C9457000C945700D4
:100050000C945700BD019D019F01A101A301A501C1
:10006000A701A901AB01AD01AF01B101B301B50118
:10007000B701B90111241FBECFE5D4E0DEBFCDBF6B
:1000800011E0A0E6B0E0ECE3FAE002C005900D92CA
:10009000A033B107D9F721E0A0E3B1E001C01D9280
:1000A000A835B207E1F70E9477010C941C050C9467
:1000B0000000CF93DF93C0913101D0E00E947B0418
:1000C000C25BDE4F888380913101E82FF0E0E25B74
:1000D000FE4F9081933219F41092310103C08F5F6B
:1000E00080933101DF91CF9108958091600081115B
:1000F00015C0E0913001F0E0EC5BFE4F808183326F
:1001000031F40E94790481E08093600008950E9498
:100110007904809130018F5F8093300108950E94AF
:100120005D04109231011092300181E080936000F3
:1001300085E790E00E947D0489E590E00E948204BA
:1001400008958FEF8ABB87BB84BB81BB089588303D
:10015000E8F4613069F44BB321E030E0B90102C04A
:10016000660F771F8A95E2F7CB01842B8BBB08952E
:100170004BB321E030E0B90102C0660F771F8A95CA
:10018000E2F7CB01809584238BBB08958031F8F48E
:10019000613071F448B3885021E030E0B90102C009
:1001A000660F771F8A95E2F7CB01842B88BB0895F1
:1001B00048B3885021E030E0B90102C0660F771FD4
:1001C0008A95E2F7CB018095842388BB0895883116
:1001D000F8F4613071F445B3805121E030E0B901A9
:1001E00002C0660F771F8A95E2F7CB01842B85BB8F
:1001F000089545B3805121E030E0B90102C0660F97
:10020000771F8A95E2F7CB018095842385BB0895FB
:100210008032F0F4613071F442B3885121E030E073
:10022000B90102C0660F771F8A95E2F7CB01842BD4
:1002300082BB089542B3885121E030E0B90102C089
:10024000660F771F8A95E2F7CB018095842382BBE6
:100250000895811102C06BBB0895813011F468BB11
:100260000895823011F465BB0895833009F462BBB0
:100270000895811102C06ABB0895813011F467BBF3
:100280000895823011F464BB0895833009F461BB92
:100290000895811109C089B390E002C095958795B2
:1002A0006A95E2F781700895813049F486B390E051
:1002B00002C0959587956A95E2F78170089582301E
:1002C00049F483B390E002C0959587956A95E2F76B
:1002D00081700895833049F480B390E002C0959511
:1002E00087956A95E2F78170089580E008950E94ED
:1002F000A1000E94340278940E941C030E948F0087
:100300000E94BF018F3F11F00E94220380913F01A4
:10031000811102C00E94C00383E294EF0197F1F7BC
:1003200000C00000EDCF90E0FC013197E031F10515
:1003300010F5E65DFF4F0C94F40488E3089589E31B
:10034000089585E2089584E3089585E3089586E39A
:1003500008958AE2089581E3089582E3089583E38E
:1003600008958DE208958DE0089580E308958DE36A
:1003700008958BE208958FEF089587E30895CF9253
:10038000DF92EF92FF920F931F93CF93DF9300E0E2
:1003900010E06894CC24C4F8D12CE02EE601002EA5
:1003A00002C0CC0FDD1F0A94E2F7BE0182E090E0AC
:1003B0000E9439016C2F609582E00E942901C0E003
:1003C000D0E0FC2EBE0182E090E00E944901892B22
:1003D00041F4FF0CFF0C81E08E0D8F0D0E94930104
:1003E0000AC02196C430D10561F70F5F1F4F04305A
:1003F000110599F68FEFDF91CF911F910F91FF902B
:10040000EF90DF90CF900895CF93C82F60E08AE0FF
:100410000E94A70060E089E00E94A70089EF90E0B9
:100420000197F1F700C0000061E088E00E94A7009A
:1004300089EF90E00197F1F700C000006C2F80E099
:100440000E94290189EF90E00197F1F700C00000B8
:1004500060E088E00E94A70089EF90E00197F1F743
:1004600000C00000CF9108950E94A10082E00E9488
:10047000040288E30E9404028CE00E94040281E0EE
:100480000E9404020895CF93C82F61E08AE00E9481
:10049000A70060E089E00E94A70089EF90E0019743
:1004A000F1F700C0000061E088E00E94A70089EF3A
:1004B00090E00197F1F700C000006C2F80E00E94EF
:1004C000290189EF90E00197F1F700C0000060E09A
:1004D00088E00E94A70089EF90E00197F1F700C043
:1004E0000000CF9108950F931F93CF93FC0180815B
:1004F000882359F08F01C0E00E944302CF5FF801CA
:10050000EC0FF11D80818111F7CFCF911F910F91D9
:10051000089581E00E9404020895813009F4605C2E
:10052000862F80680E94040208958F929F92AF9256
:10053000BF92CF92DF92EF92FF921F93CF93DF9300
:10054000CDB7DEB760970FB6F894DEBF0FBECDBF54
:10055000611571058105910521F480E30E94430234
:100560003EC0992384F4CC24DD247601C61AD70A30
:10057000E80AF90A8DE20E944302C114D104E104A1
:10058000F10469F102C06B017C0110E00F2EFAE06A
:100590008F2E912CA12CB12CF02DC701B601A501F5
:1005A00094010E94D504E1E0F0E0EC0FFD1FE10FA3
:1005B000F11D605D60831F5FC22ED32EE42EF52EE9
:1005C000C114D104E104F10441F7112341F0FE010B
:1005D000E10FF11D80810E9443021150C1F7609626
:1005E0000FB6F894DEBF0FBECDBFDF91CF911F9144
:1005F000FF90EF90DF90CF90BF90AF909F908F9043
:1006000008950E94890280913201833070F487E658
:1006100090E00E947302809132018F5C0E9443023D
:1006200060E081E00E948D0204C087E790E00E94B4
:10063000730210923301089510923F0181E080937C
:10064000660008958D3019F40E941C03089590915E
:100650003F01911125C0863361F480916600863098
:1006600021F481E08093660008958F5F8093660097
:100670000895843361F480916600813021F486E02E
:1006800080936600089581508093660008958133B9
:1006900009F075C081E080933F010E940103089535
:1006A000913009F06CC08D3369F090913301E92FDE
:1006B000F0E0EC5CFE4F80839F5F909333010E94DB
:1006C00043020895E0913301F0E0EC5CFE4F1082AC
:1006D00080913401813349F420E015C0FC01EC5CC9
:1006E000FE4F4081431779F002C080E090E02091F6
:1006F00032012F5F20933201FC01EC5CFE4F8081C0
:10070000882381F00AC02F5F822F90E0FC01EA5D10
:10071000FE4F30813111E2CF2BC0809132018F5FCB
:100720008093320180913201833038F00E94890237
:1007300088E890E00E94730208950E9489028CE983
:1007400090E00E9473022FE38DE093E021508040FF
:100750009040E1F700C000000E940103089510924C
:1007600032010E9489028DEA90E00E94730208958E
:10077000FC01EC5CFE4F80818111CFCFF0CF08955A
:10078000809166008330E9F128F4813061F0823095
:1007900001F10895853009F462C008F448C086303C
:1007A00009F473C008950E9489028EEB90E00E94C4
:1007B000730268E081E00E948D026091650070E044
:1007C00080E090E00E94950289EC90E00E94730224
:1007D00008950E9489028CEC90E00E94730260E010
:1007E00081E00E948D0280913E01811105C087ED5C
:1007F00090E00E947302089587EE90E00E947302D9
:1008000008950E94890282EF90E00E94730268E0DE
:1008100081E00E948D026091640070E080E090E0D1
:100820000E9495028DEF90E00E94730208950E944D
:10083000890280E091E00E9473026CE081E00E94F6
:100840008D0280916300811105C08AE091E00E94D1
:10085000730208958EE091E00E94730208950E9451
:10086000890281E191E00E94730268E081E00E94C8
:100870008D026091620070E080E090E00E9495023D
:100880008DEF90E00E94730208950E9489028BE12F
:1008900091E00E94730268E081E00E948D028091E5
:1008A0006100811105C08AE091E00E947302089501
:1008B0008EE091E00E9473020895599A549A539AD7
:1008C000579A569A529880B5806880BD80B58260EC
:1008D00080BD80B5846080BD80B58F7E80BD80B5D1
:1008E0008F7D80BD80B5877F80BD10BC8CE089B9CD
:1008F00008958CB908958CB1089590934301809325
:1009000042010895909341018093400108951F9200
:100910000F920FB60F9211242F933F934F935F9333
:100920006F937F938F939F93AF93BF93EF93FF93B7
:10093000E0914201F09143010995FF91EF91BF9140
:10094000AF919F918F917F916F915F914F913F9167
:100950002F910F900FBE0F901F9018951F920F921E
:100960000FB60F9211242F933F934F935F936F9382
:100970007F938F939F93AF93BF93EF93FF93E091F8
:100980004001F09141010995FF91EF91BF91AF9125
:100990009F918F917F916F915F914F913F912F9197
:1009A0000F900FBE0F901F901895052E97FB1EF409
:1009B00000940E94EC0457FD07D00E94FA0407FC43
:1009C00003D04EF40C94EC0450954095309521954D
:1009D0003F4F4F4F5F4F089590958095709561956B
:1009E0007F4F8F4F9F4F0895EE0FFF1F0590F4919B
:1009F000E02D0994A1E21A2EAA1BBB1BFD010DC01C
:100A0000AA1FBB1FEE1FFF1FA217B307E407F507BE
:100A100020F0A21BB30BE40BF50B661F771F881F9A
:100A2000991F1A9469F760957095809590959B0130
:0C0A3000AC01BD01CF010895F894FFCF88
:100A3C0001013201050103456E746572205061732A
:100A4C0073207472793A00596F752063616E6E6F02
:100A5C007420656E7465720057726F6E67207061DA
:100A6C00737320616C61726D206F6E0047697665DF
:100A7C0020616E6F7468657220747279004C6F67B8
:100A8C00696E207375636365737366756C0054458A
:100A9C004D5052415455524500204300504952206C
:100AAC0053454E534F52004F626A65637420646520
:100ABC00746563746564004E6F204F626A6563747D
:100ACC0073004C44522053454E534F520020250086
:100ADC004C4544205354415445004F4646004F4E1C
:100AEC000046616E20537065656400446F6F722020
:100AFC00537461746500313233340000000000001F
:00000001FF
