S0170000494E544552464143494E475F4543552E73726563A7
S11300000C943A000C9457000C9457000C9457002D
S11300100C9457000C9457000C9457000C94570000
S11300200C9457000C9457000C9457000C94CE0475
S11300300C9457000C94A7040C9457000C9457008C
S11300400C9457000C9457000C9457000C945700D0
S11300500C945700C701A701A901AB01AD01AF0181
S1130060B101B301B501B701B901BB01BD01BF01C4
S1130070C101C30111241FBECFE5D4E0DEBFCDBF53
S113008011E0A0E6B0E0ECE7FAE002C005900D92C2
S1130090AA32B107D9F721E0AAE2B1E001C01D926A
S11300A0AA35B207E1F70E9481010C943C050C9437
S11300B00000CF93DF93C0912D01D0E00E949B04F8
S11300C0C75BDE4F888380912D01E82FF0E0E75B6A
S11300D0FE4F9081933241F4E0912A01F0912B017B
S11300E0099510922D0103C08F5F80932D01DF913C
S11300F0CF91089580916000811115C0E0912C0189
S1130100F0E0E15CFE4F8081833231F40E94990477
S113011081E08093600008950E94990480912C01ED
S11301208F5F80932C0108950E947D0410922D010D
S113013010922C0181E0809360008AE790E00E9495
S11301409D0489E590E00E94A204089590932B01F8
S113015080932A0108958FEF8ABB87BB84BB81BB40
S113016008958830E8F4613069F44BB321E030E05D
S1130170B90102C0660F771F8A95E2F7CB01842B81
S11301808BBB08954BB321E030E0B90102C0660F88
S1130190771F8A95E2F7CB01809584238BBB089562
S11301A08031F8F4613071F448B3885021E030E0D4
S11301B0B90102C0660F771F8A95E2F7CB01842B41
S11301C088BB089548B3885021E030E0B90102C0EB
S11301D0660F771F8A95E2F7CB018095842388BB4D
S11301E008958831F8F4613071F445B3805121E009
S11301F030E0B90102C0660F771F8A95E2F7CB01A0
S1130200842B85BB089545B3805121E030E0B901CA
S113021002C0660F771F8A95E2F7CB01809584238D
S113022085BB08958032F0F4613071F442B3885193
S113023021E030E0B90102C0660F771F8A95E2F72A
S1130240CB01842B82BB089542B3885121E030E076
S1130250B90102C0660F771F8A95E2F7CB0180953A
S1130260842382BB0895811102C06BBB0895813041
S113027011F468BB0895823011F465BB089583308E
S113028009F462BB0895811102C06ABB08958130EC
S113029011F467BB0895823011F464BB0895833070
S11302A009F461BB0895811109C089B390E002C0CB
S11302B0959587956A95E2F781700895813049F4A0
S11302C086B390E002C0959587956A95E2F78170B0
S11302D00895823049F483B390E002C095958795E0
S11302E06A95E2F781700895833049F480B390E011
S11302F002C0959587956A95E2F78170089580E02C
S113030008950E94AB000E94370278940E9438033B
S11303100E9494000E94C9018F3F11F00E94420381
S113032080915301811102C00E94E00383E294EFA3
S11303300197F1F700C00000EDCF90E0FC01319788
S1130340E031F10510F5E65DFF4F0C94140588E3E8
S1130350089589E3089585E2089584E3089585E383
S1130360089586E308958AE2089581E3089582E377
S1130370089583E308958DE208958DE0089580E360
S113038008958DE308958BE208958FEF089587E330
S11303900895CF92DF92FF920F931F93CF93DF9331
S11303A000E010E06894CC24C4F8D12CF02EE601CF
S11303B0002E02C0CC0FDD1F0A94E2F76C2F82E0FE
S11303C00E9443016C2F609582E00E943301C0E0DB
S11303D06C2F82E00E945301811108C0CC0FCC0F16
S11303E081E08F0D8C0F0E949D0109C0CF5FC43046
S11303F079F70F5F1F4F04301105C1F68FEFDF91BE
S1130400CF911F910F91FF90DF90CF900895CF93DC
S1130410C82F60E08AE00E94B10060E089E00E9499
S1130420B10089EF90E00197F1F700C0000061E0AE
S113043088E00E94B10089EF90E00197F1F700C0D5
S113044000006C2F80E00E94330189EF90E0019757
S1130450F1F700C0000060E088E00E94B10089EF7D
S113046090E00197F1F700C00000CF9108950E9439
S1130470AB0082E00E94070288E30E9407028CE03E
S11304800E94070281E00E9407020895CF93C82FBB
S113049061E08AE00E94B10060E089E00E94B1005E
S11304A089EF90E00197F1F700C0000061E088E077
S11304B00E94B10089EF90E00197F1F700C00000BD
S11304C06C2F80E00E94330189EF90E00197F1F7EF
S11304D000C0000060E088E00E94B10089EF90E075
S11304E00197F1F700C00000CF9108950F931F9377
S11304F0CF93FC018081882359F08F01C0E00E94D2
S11305004602CF5FF801EC0FF11D80818111F7CF16
S1130510CF911F910F91089581E00E9407020895E1
S1130520813009F4605C862F80680E940702089578
S11305308F929F92AF92BF92CF92DF92EF92FF92EF
S11305401F93CF93DF93CDB7DEB760970FB6F894C0
S1130550DEBF0FBECDBF611571058105910521F484
S113056080E30E9446023EC0992384F4CC24DD2417
S11305707601C61AD70AE80AF90A8DE20E944602F1
S1130580C114D104E104F10469F102C06B017C01DE
S113059010E00F2EFAE08F2E912CA12CB12CF02D0F
S11305A0C701B601A50194010E94F504E1E0F0E061
S11305B0EC0FFD1FE10FF11D605D60831F5FC22E14
S11305C0D32EE42EF52EC114D104E104F10441F735
S11305D0112341F0FE01E10FF11D80810E944602CA
S11305E01150C1F760960FB6F894DEBF0FBECDBFB1
S11305F0DF91CF911F91FF90EF90DF90CF90BF904C
S1130600AF909F908F900895809149018436A1F412
S1130610E9E4F1E08181809355018281809359015D
S113062083818093560184818093570185818093CF
S1130630580186818093540108950E948C02809110
S11306402E01833070F481E690E00E94760280915E
S11306502E018F5C0E94460260E081E00E949002BD
S113066004C081E790E00E94760210922F01089561
S11306701092530181E080933A0184E093E00E9458
S1130680A60008958D3019F40E94380308959091BE
S11306905301911125C0863361F480913A0186306B
S11306A021F481E080933A0108958F5F80933A01A9
S11306B00895843361F480913A01813021F486E015
S11306C080933A010895815080933A0108958133CB
S11306D009F075C081E0809353010E941D030895C1
S11306E0913009F06CC08D3369F090912F01E92F9E
S11306F0F0E0E05DFE4F80839F5F90932F010E94A6
S113070046020895E0912F01F0E0E05DFE4F108273
S113071080913001813349F420E015C0FC01E05D93
S1130720FE4F4081431779F002C080E090E02091B1
S11307302E012F5F20932E01FC01E05DFE4F80818E
S1130740882381F00AC02F5F822F90E0FC01E05ED5
S1130750FE4F30813111E2CF2BC080912E018F5F8B
S113076080932E0180912E01833038F00E948C02F8
S113077082E890E00E94760208950E948C0286E945
S113078090E00E9476022FE38DE093E021508040B8
S11307909040E1F700C000000E941D0308951092EC
S11307A02E010E948C0287EA90E00E94760208954E
S11307B0FC01E05DFE4F80818111CFCFF0CF089521
S11307C080913A018330E9F128F4813061F082307C
S11307D001F10895853009F462C008F448C08630F8
S11307E009F473C008950E948C0288EB90E00E9483
S11307F0760268E081E00E9490026091550170E009
S113080080E090E00E94980283EC90E00E947602DF
S113081008950E948C0286EC90E00E94760260E0CB
S113082081E00E94900280915701811105C081ED01
S113083090E00E947602089581EE90E00E94760294
S113084008950E948C028CEE90E00E94760268E08B
S113085081E00E9490026091590170E080E090E094
S11308600E94980287EF90E00E94760208950E9409
S11308708C028AEF90E00E9476026CE081E00E9494
S1130880900280915601811105C084E091E00E949C
S11308907602089588E091E00E94760208950E940D
S11308A08C028BE091E00E94760268E081E00E9475
S11308B090026091540170E080E090E00E94980200
S11308C087EF90E00E94760208950E948C0285E1F1
S11308D091E00E94760268E081E00E94900280919B
S11308E05801811105C084E091E00E9476020895C8
S11308F088E091E00E9476020895599A549A539A96
S1130900579A569A529880B5806880BD80B58260A7
S113091080BD80B5846080BD80B58F7E80BD80B58C
S11309208F7D80BD80B5877F80BD10BC8CE089B988
S113093008958CB908958CB1089590933E018093E5
S11309403D01089590933C0180933B0108951F92CB
S11309500F920FB60F9211242F933F934F935F93EF
S11309606F937F938F939F93AF93BF93EF93FF9373
S1130970E0913D01F0913E010995FF91EF91BF9106
S1130980AF919F918F917F916F915F914F913F9123
S11309902F910F900FBE0F901F9018951F920F92DA
S11309A00FB60F9211242F933F934F935F936F933E
S11309B07F938F939F93AF93BF93EF93FF93E091B4
S11309C03B01F0913C010995FF91EF91BF91AF91EB
S11309D09F918F917F916F915F914F913F912F9153
S11309E00F900FBE0F901F901895052E97FB1EF4C5
S11309F000940E940C0557FD07D00E941A0507FCBD
S1130A0003D04EF40C940C055095409530952195E7
S1130A103F4F4F4F5F4F0895909580957095619526
S1130A207F4F8F4F9F4F0895EE0FFF1F0590F49156
S1130A30E02D0994A1E21A2EAA1BBB1BFD010DC0D7
S1130A40AA1FBB1FEE1FFF1FA217B307E407F5077A
S1130A5020F0A21BB30BE40BF50B661F771F881F56
S1130A60991F1A9469F760957095809590959B01EC
S10F0A70AC01BD01CF010895F894FFCF44
S1130A7C01456E7465722050617373207472793AF7
S1130A8C00596F752063616E6E6F7420656E7465AA
S1130A9C720057726F6E67207061737320616C61A2
S1130AAC726D206F6E004769766520616E6F746895
S1130ABC657220747279004C6F67696E207375636C
S1130ACC6365737366756C0054454D5052415455AF
S1130ADC5245002043005049522053454E534F5227
S1130AEC004F626A6563742064657465637465643D
S1130AFC004E6F204F626A65637473004C4452203D
S1130B0C53454E534F52002025004C45442053541A
S1130B1C415445004F4646004F4E0046616E2053EB
S1130B2C7065656400446F6F722053746174650062
S10D0B3C31323334000000000000E1
S9030000FC
