:100000000C943A000C9457000C9457000C94570031
:100010000C9457000C9457000C9457000C94570004
:100020000C9457000C9457000C9457000C945700F4
:100030000C9457000C9457000C9457000C945700E4
:100040000C9457000C9457000C9457000C945700D4
:100050000C94570074015401560158015A015C0177
:100060005E01600162016401660168016A016C0160
:100070006E01700111241FBECFE5D4E0DEBFCDBFFD
:1000800011E0A0E6B0E0EAEBF8E002C005900D92C6
:10009000A033B107D9F721E0A0E3B1E001C01D9280
:1000A000AE33B207E1F70E942F010C945B040C946D
:1000B00000008FEF8ABB87BB84BB81BB089588306B
:1000C000E8F4613069F44BB321E030E0B90102C0DB
:1000D000660F771F8A95E2F7CB01842B8BBB0895BF
:1000E0004BB321E030E0B90102C0660F771F8A955B
:1000F000E2F7CB01809584238BBB08958031F8F41F
:10010000613071F448B3885021E030E0B90102C099
:10011000660F771F8A95E2F7CB01842B88BB089581
:1001200048B3885021E030E0B90102C0660F771F64
:100130008A95E2F7CB018095842388BB08958831A6
:10014000F8F4613071F445B3805121E030E0B90139
:1001500002C0660F771F8A95E2F7CB01842B85BB1F
:10016000089545B3805121E030E0B90102C0660F27
:10017000771F8A95E2F7CB018095842385BB08958C
:100180008032F0F4613071F442B3885121E030E004
:10019000B90102C0660F771F8A95E2F7CB01842B65
:1001A00082BB089542B3885121E030E0B90102C01A
:1001B000660F771F8A95E2F7CB018095842382BB77
:1001C0000895811102C06BBB0895813011F468BBA2
:1001D0000895823011F465BB0895833009F462BB41
:1001E0000895811102C06ABB0895813011F467BB84
:1001F0000895823011F464BB0895833009F461BB23
:100200000895811109C089B390E002C09595879542
:100210006A95E2F781700895813049F486B390E0E1
:1002200002C0959587956A95E2F7817008958230AE
:1002300049F483B390E002C0959587956A95E2F7FB
:1002400081700895833049F480B390E002C09595A1
:1002500087956A95E2F78170089580E008950E947D
:1002600059000E94EB010E94D3020E9476018F3F49
:1002700011F00E94D90280913D0190913E01892B9D
:1002800011F40E94770383E294EF0197F1F700C025
:100290000000EBCF90E0FC013197E031F10510F563
:1002A000E65DFF4F0C94330488E3089589E30895D5
:1002B00085E2089584E3089585E3089586E308952B
:1002C0008AE2089581E3089582E3089583E308951F
:1002D0008DE208958DE0089580E308958DE30895FB
:1002E0008BE208958FEF089587E30895CF92DF9210
:1002F000EF92FF920F931F93CF93DF9300E010E0F4
:100300006894CC24C4F8D12CE02EE601002E02C063
:10031000CC0FDD1F0A94E2F7BE0182E090E00E945C
:10032000F1006C2F609582E00E94E100C0E0D0E017
:10033000FC2EBE0182E090E00E940101892B41F475
:10034000FF0CFF0C81E08E0D8F0D0E944A010AC048
:100350002196C430D10561F70F5F1F4F043011059E
:1003600099F68FEFDF91CF911F910F91FF90EF9052
:10037000DF90CF900895CF93C82F60E08AE00E946D
:100380005F0060E089E00E945F0089EF90E00197E4
:10039000F1F700C0000061E088E00E945F0089EF93
:1003A00090E00197F1F700C000006C2F80E00E9400
:1003B000E10089EF90E00197F1F700C0000060E0F4
:1003C00088E00E945F0089EF90E00197F1F700C09C
:1003D0000000CF9108950E94590082E00E94BB0165
:1003E00088E30E94BB018CE00E94BB0181E00E9477
:1003F000BB010895CF93C82F61E08AE00E945F009F
:1004000060E089E00E945F0089EF90E00197F1F7DA
:1004100000C0000061E088E00E945F0089EF90E08A
:100420000197F1F700C000006C2F80E00E94E1000E
:1004300089EF90E00197F1F700C0000060E088E0EC
:100440000E945F0089EF90E00197F1F700C0000083
:10045000CF9108950F931F93CF93FC018081882340
:1004600059F08F01C0E00E94FA01CF5FF801EC0F54
:10047000F11D80818111F7CFCF911F910F910895C8
:1004800081E00E94BB010895813009F4605C862FF1
:1004900080680E94BB0108958F929F92AF92BF9295
:1004A000CF92DF92EF92FF921F93CF93DF93CDB75E
:1004B000DEB760970FB6F894DEBF0FBECDBF6115F3
:1004C00071058105910521F480E30E94FA013EC087
:1004D000992384F4CC24DD247601C61AD70AE80ACD
:1004E000F90A8DE20E94FA01C114D104E104F10479
:1004F00069F102C06B017C0110E00F2EFAE08F2E33
:10050000912CA12CB12CF02DC701B601A5019401AD
:100510000E941404E1E0F0E0EC0FFD1FE10FF11D7B
:10052000605D60831F5FC22ED32EE42EF52EC114B2
:10053000D104E104F10441F7112341F0FE01E10F80
:10054000F11D80810E94FA011150C1F760960FB62B
:10055000F894DEBF0FBECDBFDF91CF911F91FF900A
:10056000EF90DF90CF90BF90AF909F908F900895C5
:100570000E94400280913001833070F486E690E062
:100580000E942A02809130018F5C0E94FA0160E093
:1005900081E00E94440204C086E790E00E942A02A3
:1005A00010923101089510923D0181E08093650021
:1005B00008958D3019F40E94D302089590913D0161
:1005C000911125C0863361F480916500863021F455
:1005D00081E08093650008958F5F809365000895A2
:1005E000843361F480916500813021F486E080934A
:1005F000650008958150809365000895813309F066
:1006000075C081E080933D010E94B8020895913049
:1006100009F06CC08D3369F090913101E92FF0E061
:10062000EE5CFE4F80839F5F909331010E94FA0140
:100630000895E0913101F0E0EE5CFE4F1082809170
:100640003201813349F420E015C0FC01EE5CFE4F1D
:100650004081431779F002C080E090E020913001A2
:100660002F5F20933001FC01EE5CFE4F80818823D8
:1006700081F00AC02F5F822F90E0FC01EB5DFE4FFE
:1006800030813111E2CF2BC0809130018F5F809398
:10069000300180913001833038F00E94400287E8B9
:1006A00090E00E942A0208950E9440028BE990E0A7
:1006B0000E942A022FE38DE093E021508040904079
:1006C000E1F700C000000E94B802089510923001C6
:1006D0000E9440028CEA90E00E942A020895FC01E8
:1006E000EE5CFE4F80818111CFCFF0CF08958091D5
:1006F00065008330E9F128F4813061F0823001F146
:100700000895853009F462C008F448C0863009F4C1
:1007100073C008950E9440028DEB90E00E942A026F
:1007200068E081E00E9444026091640070E080E033
:1007300090E00E944C0288EC90E00E942A0208950A
:100740000E9440028BEC90E00E942A0260E081E06F
:100750000E94440280913C01811105C086ED90E029
:100760000E942A02089586EE90E00E942A020895CF
:100770000E94400281EF90E00E942A0268E081E03E
:100780000E9444026091630070E080E090E00E946B
:100790004C028CEF90E00E942A0208950E944002D1
:1007A0008FEF90E00E942A026CE081E00E944402F8
:1007B00080916200811105C089E091E00E942A02C7
:1007C00008958DE091E00E942A0208950E9440025F
:1007D00080E191E00E942A0268E081E00E944402E8
:1007E0006091610070E080E090E00E944C028CEF2C
:1007F00090E00E942A0208950E9440028AE191E05E
:100800000E942A0268E081E00E9444028091600018
:10081000811105C089E091E00E942A0208958DE0CF
:1008200091E00E942A020895052E97FB1EF4009481
:100830000E942B0457FD07D00E94390407FC03D007
:100840004EF40C942B0450954095309521953F4FD4
:100850004F4F5F4F089590958095709561957F4FAC
:100860008F4F9F4F0895EE0FFF1F0590F491E02DDD
:100870000994A1E21A2EAA1BBB1BFD010DC0AA1FE1
:10088000BB1FEE1FFF1FA217B307E407F50720F0F9
:10089000A21BB30BE40BF50B661F771F881F991F74
:1008A0001A9469F760957095809590959B01AC01BD
:0A08B000BD01CF010895F894FFCFB9
:1008BA00013201050103456E74657220506173733C
:1008CA00207472793A00596F752063616E6E6F7485
:1008DA0020656E7465720057726F6E67207061735F
:1008EA007320616C61726D206F6E004769766520B6
:1008FA00616E6F7468657220747279004C6F6769F3
:10090A006E207375636365737366756C0054454D29
:10091A0050524154555245002043005049522053E9
:10092A00454E534F52004F626A6563742064657482
:10093A006563746564004E6F204F626A6563747301
:10094A00004C44522053454E534F52002025004C30
:10095A004544205354415445004F4646004F4E00EB
:10096A0046616E20537065656400446F6F72205350
:10097A0074617465003132333400000000000000F5
:00000001FF
